:020000040800F2
:100000000000032081020008850200088702000822
:10001000C5020008C7020008DD0200080000000059
:10002000000000000000000000000000B90A000805
:10003000F502000800000000D90A0008F9020008D3
:100040000D0300080D0300080D0300080D03000850
:100050000D0300080D0300080D0300080D03000840
:100060000D0300080D0300080D0300080D03000830
:100070000D0300080D0300080D0300080D03000820
:100080000D0300080D0300080D0300080D03000810
:100090000D0300080D0300080D0300080D03000800
:1000A0000D0300080D0300080D0300080D030008F0
:1000B0000D0300080D0300080D0300080D030008E0
:1000C0000D0300080D0300080D0300080D030008D0
:1000D0000D0300080D0300080D0300080D030008C0
:1000E0000D0300080D0300080D0300080D030008B0
:1000F0000D0300080D0300080D0300080D030008A0
:100100000D0300080D0300080D0300080D0300088F
:100110000D0300080D0300080D0300080D0300087F
:100120000D0300080D0300080D0300080D0300086F
:100130000D0300080D0300080D0300080D0300085F
:100140000D0300080D0300080D0300080D0300084F
:100150000D0300080D0300080D0300080D0300083F
:100160000D0300080D0300080D0300080D0300082F
:100170000D0300080D0300080D0300080000000037
:100180000D0300080D0300080D0300080D0300080F
:100190000D0300080D0300080D0300080D030008FF
:1001A0000D0300080D0300080D03000807B500F05B
:1001B00031FC294B294A93420BD293E806000C33B9
:1001C00053F8040C9042F5D951F8044B42F8044B13
:1001D000F8E7234B234A934209D253F8082B53F8EC
:1001E000041C8A42F6D2002042F8040BF9E700F022
:1001F00011FD684601A900F005FC1B4C1B4BE41ADD
:10020000A41000251E46A54204DA56F8253098476A
:100210000135F8E7164B174CE41AA41000251E46CA
:10022000A54204DA56F8253098470135F8E79DE8ED
:10023000030000F003FD104C104BE41A0646A41016
:100240001D46002C04DD013C55F824309847F8E7A2
:10025000304600F0D3FB00BF10030008280300085D
:100260002803000838030008380300083803000892
:100270003803000838030008380300083803000872
:100280001E480047FEE71EF0040F0CBFEFF3088086
:10029000EFF3098071461A4A104710B5084C236BDA
:1002A0009B070BD5E36A002B08DA4BF6AB6100F035
:1002B000CFFB18B14FF00043E36210BDFEE700BF73
:1002C00000ED00E0FEE71EF0040F0CBFEFF3088026
:1002D000EFF3098071460B4A1047FEE71EF0040F4A
:1002E0000CBFEFF30880EFF309807146064A104710
:1002F000FEE7FEE7FEE7FEE770470000AD010008FD
:0E0300009B020008DB020008F1020008FEE785
:10031000500C0008000000200C000020500C0008C9
:1003200000000010000000100C00002088000020D9
:080330000000001000000010A5
:1003380010B5044600F042FB4FF47A73B0FBF3F0BB
:1003480000F072F84FF0FF302146002200F03CF830
:10035800002010BD08B50B4B1A6842F400721A60F1
:100368001A6842F480621A601A6842F480721A604D
:10037800032000F017F80F20FFF7DAFF00F06AF803
:10038800002008BD003C0240014B1868704700BFC0
:100398000C000020024A136823F002031360704720
:1003A80010E000E0074AD36823F4E0631B041B0C49
:1003B80043F0BF6343F4003300F0070043EA00232F
:1003C800D360704700ED00E0154BDB68C3F30223F0
:1003D80070B5C3F107051C1D042D28BF0425062C84
:1003E8008CBF033B0023012404FA03F6AC40013C14
:1003F800013E214099403240002842EA01024FEA7A
:100408000212AFBF00F1604000F00F00054BD2B2FE
:10041800A5BF00F56140D2B21A5480F8002370BD20
:1004280000ED00E014ED00E00138B0F1807F3FBF3F
:10043800064B074A5860F0213FBF82F8231000207E
:100448000722986034BF1A600120704710E000E06E
:1004580000ED00E070470000F8B503680446D807CF
:1004680003D4236899074CD49DE08A4B9A6802F01C
:100478000C02042A07D09A6802F00C02082A0BD151
:100488005B685A0208D5834B1B689B03E9D56368F0
:10049800002BE6D10120F8BD7F4D00232B70FFF71C
:1004A80073FF06467B4B1B689F0308D5FFF76CFF5D
:1004B80041F28833801B9842F4D90320F8BD237990
:1004C8002B70636873B1FFF75FFF0546714B1B68BC
:1004D8009803C6D4FFF758FF41F28833401B98426F
:1004E800F4D9EAE7FFF750FF05466A4B1B68990302
:1004F800B7D5FFF749FF41F28833401B9842F4D93A
:10050800DBE7644B9A6812F00C0F07D09A6802F088
:100518000C02082A18D15B685A0215D45D4A136880
:100528009B0702D5E368012BB4D11168F82393FA2D
:10053800A3F3B3FA83F32069DBB2984021F0F80102
:1005480040EA010313602EE0E268544BEAB101224D
:100558001A60FFF719FF05464E490B689F0705D437
:10056800FFF712FF401B6428F6D9A6E70A68F823AC
:1005780093FAA3F3B3FA83F32069DBB2984022F02D
:10058800F80240EA02030B600DE01A60FFF7FCFE78
:100598000546404B1B689E0705D5FFF7F5FE401B37
:1005A8006428F6D989E723681D0703D42368580708
:1005B80048D51FE062693A4B72B101221A60FFF711
:1005C800E3FE0546334B5B6F9907EFD4FFF7DCFE7C
:1005D800401B6428F6D970E71A60FFF7D5FE054678
:1005E8002C4B5B6F9A07E1D5FFF7CEFE401B6428C2
:1005F800F6D962E7274A136C43F080531364A2F5D7
:10060800E432136843F480731360FFF7BDFE0546B8
:10061800244B1B68DB0518D5234D00232B70FFF7EF
:10062800B3FE06461B4B1B6F9F0714D4237A2B700F
:10063800A368012B1FD1FFF7A7FE0546154B1B6FBB
:100648009E0710D5A2698ABB73E0FFF79DFE401B89
:100658006428DDD931E7FFF797FE41F28833801B24
:100668009842DFD929E7FFF78FFE41F28833401B14
:100678009842E3D921E7FFF787FE0546054B1B6F34
:100688009807DFD5FFF780FE41F28833401B984278
:10069800F4D912E70038024002380240000047420D
:1006A800800E474200700040703802402E4B9B6815
:1006B80003F00C03082B3FF4EDAE2C4D0023022A67
:1006C8002B6044D1FFF760FE0746274E3368990137
:1006D80031D447F6C07090FAA0F0B0FA80F04FF429
:1006E800403191FAA1F1B1FA81F14FF0706292FABA
:1006F800A2F2B2FA82F2276AE3693B4343F0005759
:10070800636AC0B2834047EA0300A36A5B08C9B2C0
:10071800013B8B40D1B2E26A03438A4013437360C2
:1007280001232B60FFF730FE04460F4B1B689A012C
:1007380007D50020F8BDFFF727FEC01B6428C4D9E1
:10074800BBE6FFF721FE001B6428EED9B5E6FFF7EC
:100758001BFE0446044B1B689B01EAD5FFF714FEF9
:10076800001B6428F6D9A8E600380240600047421A
:100778006F4B1A6802F00F02914270B504460D469D
:1007880068D9CAB21A701B6803F00F038B4201D0F4
:10079800012070BD01688B0741BF6648836823F05C
:1007A800F002A36844BF13438360CE070BD42168CB
:1007B8004D0740F1AC805F48836823F4E052E3685A
:1007C80013438360A3E062685A4B012A196802D177
:1007D80011F4003F06E0022A02D111F0007F01E087
:1007E80011F0020FD4D0996821F003010A439A60EE
:1007F800FFF7CAFD6368012B05460ED14D4B9B6878
:1008080003F00C03042BD2D0FFF7BEFD41F288336E
:10081800401B9842F2D9032070BD022B14D1454BDE
:100828009B6803F00C03082BC1D0FFF7ADFD41F224
:100838008833401B9842F2D9EDE7FFF7A5FD41F256
:100848008833401B9842E6D83A4B9B6813F00C0F4C
:10085800F3D1ACE70168880741BF3648836823F0C5
:10086800F002A36844BF13438360CA0708D4304B1F
:10087800EAB21A701B6803F00F03AB4288D196E7FF
:1008880062682C4B012A196802D111F4003F06E076
:10089800022A02D111F0007F01E011F0020F3FF4AB
:1008A80077AF996821F003010A439A60FFF76CFD5E
:1008B8006368012B06460DD11E4B9B6803F00C03A1
:1008C800042BD4D0FFF760FD41F28833801B984297
:1008D800F2D9A0E7022B14D1164B9B6803F00C0346
:1008E800082BC4D0FFF750FD41F28833801B984293
:1008F800F2D990E7FFF748FD41F28833801B984210
:1009080089D80C4B9B6813F00C0FF3D1AFE70B079A
:1009180041BF084A2169936823F4604344BF43EA0E
:10092800C10393600F20FFF703FD002070BD00BFD7
:10093800003C02400038024030B51D4CA36803F06B
:100948000C03042B30D0082B30D16268636802F0A6
:100958003F0513F4800F47F6C071636891FAA1F15F
:10096800B1FA81F147F6C07004BF124AB2FBF5F242
:10097800C9B200EA030020FA01F01CBF0E49B1FB1E
:10098800F5F202FB00F30A4A50684FF4403292FA3B
:10099800A2F2B2FA82F2D2B200F44030D040013072
:1009A8004000B3FBF0F030BD034830BD014830BD16
:1009B800003802400024F40000127A0008B5FFF75E
:1009C800BBFF094B9A68F02393FAA3F3B3FA83F3B6
:1009D80002F0F002DBB222FA03F3044AD35CD840F7
:1009E800034B186008BD00BF003802403E0C0008E9
:1009F8000800002008B500F017F800000123036084
:100A0800014B0B60704700BF0000002008B500F0E4
:100A180029F8044AD2F8883043F47003C2F88830C1
:100A280008BD00BF00ED00E0BFF34F8F0449054B40
:100A3800CA6802F4E0621343CB60BFF34F8FFEE74E
:100A480000ED00E00400FA0583691A888A4207D19C
:100A58000268033A012A03D80233836101207047F0
:100A6800002070470F49D1F8883043F47003C1F86B
:100A780088300D4B1A68002042F001021A60986015
:100A88001A6822F0847222F480321A60074A5A6087
:100A98001A6822F480221A60D8604FF000638B60D5
:100AA800704700BF00ED00E000380240103000241D
:100AB800064B19680868B0E8F04F80F30988BFF35F
:100AC8006F8F4FF0000080F3118870477800002086
:100AD800EFF30980BFF36F8F144B1A681EF0100FE5
:100AE80008BF20ED108A20E9F04F10604DF8043D52
:100AF8004FF0500080F31188BFF34F8FBFF36F8F13
:100B080000F016F84FF0000080F3118808BC19684F
:100B18000868B0E8F04F1EF0100F08BFB0EC108A5C
:100B280080F30988BFF36F8F704700BF78000020FB
:100B3800174B1A68174B10B50AB1012225E01A6045
:100B4800154B1B68B3FA83F3DBB2C3F11F031422FE
:100B580012495A4388188C5844B94FF0500383F30C
:100B68001188BFF36F8FBFF34F8FFEE744680832D9
:100B7800646844600A44944204BF62684260142274
:100B880002FB03135B68DA68054B1A6010BD00BFEF
:100B98007C00002084000020800000201400002039
:100BA80078000020184A136C10B543F08053136482
:100BB800A2F5E43292B0136843F440431360012372
:100BC800069307934FF480030D9308230E934FF475
:100BD800A87302240F9306A8072311930C9410946A
:100BE800FFF73AFC0F230193002303934FF4A0531C
:100BF800049301A84FF48053052102940593FFF74D
:100C0800B7FD12B010BD00BF0038024008B5FFF7AD
:100C180029FF074AD2F8883043F47003C2F88830B5
:100C2800FFF798FBFFF7B6FBBDE80840FFF7BABF30
:100C380000ED00E0FEE700000000010203040102ED
:060C480003040607080981
:0C0C500010000020000000000024F40050
:04000005080001AD41
:00000001FF
